:100000004CC00000F9C3000030C300004FC2000024
:10001000F9C1000060C000005EC000005CC00000CC
:100020005AC0000058C0000056C0000054C0000074
:1000300052C0000050C000004EC0000058C1000077
:100040004AC0000048C0000046C0000044C0000094
:1000500042C0000040C000003EC000003CC00000A4
:100060003AC0000038C0000036C0000034C00000B4
:1000700032C0000030C000002EC000002CC00000C4
:100080002AC0000028C0000026C0000061014C0109
:100090004F015201550158015B0111241FBECFEFE2
:1000A000D0E1DEBFCDBF12E0A0E0B1E0E8E4F7E1CF
:1000B00000E00BBF02C007900D92AA36B107D9F736
:1000C00022E0AAE6B2E001C01D92A038B207E1F733
:1000D000CDD40C94A20B94CF8FEF8ABB8FE080938A
:1000E00064000895E5E6F0E090819460908390814B
:1000F0009D7F908390819160908396EF9A95F1F720
:100100008BBB86EF8A95F1F780818E7F808308957F
:10011000E5E6F0E090819B7F908390819D7F9083C6
:1001200090819160908396EF9A95F1F78BBB86EF63
:100130008A95F1F780818E7F80830895D3DF8CECE0
:100140009CE10197F1F700C000000895CF93DF9381
:10015000EC018881882329F02196F0DF89918111B3
:10016000FCCFDF91CF91089581E0D2DF8CEC9CE150
:100170000197F1F700C00000089588E3C9DF8CEC17
:100180009CE10197F1F700C0000088E3C1DF8CEC2F
:100190009CE10197F1F700C000008EE0B9DF8CEC24
:1001A0009CE10197F1F700C0000086E0B1CF08950F
:1001B0009C0183709927892B81F4C90164E670E062
:1001C000B6D7892B61F4C90160E971E0B0D79C0111
:1001D00081E0232B29F080E0089580E0089581E0FC
:1001E0000895FF920F931F93CF93DF93EC01F42EAA
:1001F0009C01215031098DE691E0289F8001299FC3
:10020000100D389F100D1124060F111D81E0841769
:1002100040F4CE01CDDF882321F08DE180930701EA
:1002200003C08CE180930701C03981E0D8072CF02E
:10023000C059D1400F591F4FF7CFC436D1052CF00C
:10024000C456D109085E1F4FEFCFCE01DD230CF459
:1002500003969595879595958795800F911F2F2DDE
:1002600030E0215031091216130664F4E6E0F1E0A3
:100270004F2D50E04B5F5E4F2191820F911DE4178F
:10028000F507D1F767E070E052D787309105B0F4F9
:10029000FC01EA5BFF4F5EC78AE291E014C085E390
:1002A00091E011C080E491E00EC08BE491E00BC0BE
:1002B00086E591E008C081E691E005C08BE791E01A
:1002C00002C08FE191E0DF91CF911F910F91FF90DC
:1002D00008958FE089BF8FEF80936A007894089526
:1002E0008FE083BF8BE981BF82E087BF08951F92B3
:1002F0000F920FB60F9211242F933F935F936F933A
:100300007F938F939F93AF93BF93809114019091AC
:10031000150163E070E00BD70197B9F58091760283
:1003200090917702019690937702809376028436BB
:1003300091055CF180917402909175020196909301
:100340007502809374021092770210927602CC9715
:10035000E4F080917202909173020196909373027F
:10036000809372021092750210927402CC976CF016
:100370008091700290917102019690937102809326
:100380007002109273021092720280917E028F5F4F
:1003900080937E02209176023091770224363105D7
:1003A00024F010927702109276028436E8F0809161
:1003B0007D028F5F80937D0210927E028C33A0F0CD
:1003C00080917C028F5F80937C0210927D028C333F
:1003D00058F080917B028F5F80937B0210927C02A9
:1003E000883110F010927B02BF91AF919F918F9155
:1003F0007F916F915F913F912F910F900FBE0F9062
:100400001F9018951F920F920FB60F9211240BB6E2
:100410000F922F933F934F935F936F937F938F939D
:100420009F93AF93BF93EF93FF9356DEA6DE9CDEC0
:1004300080E86EDE8CE691E089DE80EC69DE8CE699
:1004400091E084DE10927A02109279021092780282
:1004500081E080931901809318018FEF9FEF9093B3
:10046000150180931401909313018093120110924F
:100470006F0210926E0210926D028FB780688FBF6C
:1004800084E680931E01FF91EF91BF91AF919F9100
:100490008F917F916F915F914F913F912F910F902D
:1004A0000BBE0F900FBE0F901F9018951F920F92CA
:1004B0000FB60F9211240BB60F922F933F934F93C9
:1004C0005F936F937F938F939F93AF93BF93EF93BC
:1004D000FF9380911E01843659F480917F028F5FD3
:1004E000853018F480937F02ADC010927F02AAC0BD
:1004F000833009F077C08091120190911301009729
:1005000011F580911601909117010197181619069F
:100510002CF4909317018093160106C081E090E0BF
:100520009093170180931601809116019091170105
:100530003FDE882321F08DE18093070183C08CE1A9
:10054000809307017FC08230910589F48091190161
:10055000823020F081508093190174C0E09118011D
:10056000F0E0EB5FFE4F8081809319016BC081301A
:10057000910561F480911801823020F081508093C0
:10058000180160C08CE0809318015CC08330910535
:1005900061F480917802882321F081508093780261
:1005A00051C087E1809378024DC08430910561F499
:1005B00080917902882321F081508093790242C092
:1005C0008BE3809379023EC00597E1F580917A0232
:1005D000882321F0815080937A0234C08BE380938A
:1005E0007A0230C0843071F580911201909113012C
:1005F000009761F480916D02882321F081508093EF
:100600006D0220C087E180936D021CC0813091058E
:1006100061F480916E02882321F0815080936E02F4
:1006200011C08BE380936E020DC0029759F4809144
:100630006F02882321F0815080936F0203C08BE307
:1006400080936F02FF91EF91BF91AF919F918F9136
:100650007F916F915F914F913F912F910F900BBEC2
:100660000F900FBE0F901F9018951F920F920FB60C
:100670000F9211240BB60F922F933F934F935F93DA
:100680006F937F938F939F93AF93BF93EF93FF935A
:1006900080911E01843631F480917F0281508093D5
:1006A0007F0297C0833009F067C08091120190915A
:1006B00013010097A1F48091160190911701019602
:1006C000909317018093160173DD882321F08DE14B
:1006D000809307017EC08CE1809307017AC082304D
:1006E000910591F480911901E0911801F0E0EB5F20
:1006F000FE4F9081891720F48F5F8093190169C0A4
:1007000081E08093190165C08130910561F4809189
:1007100018018C3020F48F5F809318015AC081E05B
:100720008093180156C08330910559F48091780266
:10073000873120F48F5F809378024BC0109278024B
:1007400048C08430910559F4809179028B3320F4AC
:100750008F5F809379023DC0109279023AC005976D
:10076000C1F580917A028B3320F48F5F80937A02F7
:1007700030C010927A022DC0843059F58091120158
:1007800090911301009759F480916D02873120F404
:100790008F5F80936D021DC010926D021AC0813070
:1007A000910559F480916E028B3320F48F5F809312
:1007B0006E020FC010926E020CC0029751F480912D
:1007C0006F028B3320F48F5F80936F0202C0109210
:1007D0006F02FF91EF91BF91AF919F918F917F91A8
:1007E0006F915F914F913F912F910F900BBE0F90A2
:1007F0000FBE0F901F9018951F920F920FB60F9279
:1008000011240BB60F922F933F934F935F936F93E7
:100810007F938F939F93AF93BF93EF93FF938091B9
:100820007F0280931E0158DCA8DC9EDC80E870DC2F
:100830008CE691E08BDC80EC6BDC8CE691E086DC76
:1008400080911E01811106C08FB780688FBF109202
:100850001E01F9C0813039F48FB780688FBF81E005
:1008600080931E01F0C0823029F58091140190918F
:1008700015010196909315018093140163E070E0D7
:1008800056D4029781F01092750210927402109261
:100890007302109272021092710210927002109202
:1008A0007702109276028FB780688FBF82E08093C4
:1008B0001E01C9C0833009F07CC080911201909163
:1008C00013018F3F2FEF920729F41092130110921A
:1008D0001201B9C0009779F4809116019091170127
:1008E00090931B0180931A0181E090E09093130193
:1008F00080931201A8C08230910559F480911901AA
:1009000080931D0183E090E0909313018093120186
:100910009AC08130910559F48091180180931C018F
:1009200082E090E090931301809312018CC0833099
:10093000910559F48091780280937B0284E090E0E5
:1009400090931301809312017EC08430910559F475
:100950008091790280937C0285E090E0909313016E
:100960008093120170C08530910559F480917A020C
:1009700080937D0286E090E09093130180931201B2
:1009800062C0069709F05FC010927A021092790255
:100990001092780281E080931901809318018FEF03
:1009A0009FEF909313018093120184E680931E01C0
:1009B0004AC0843009F047C0809112019091130120
:1009C0008F3F2FEF920729F410921301109212011A
:1009D0003AC0009759F480916D0280936A0281E0D9
:1009E00090E090931301809312012DC08130910506
:1009F00059F480916E0280936B0282E090E09093B4
:100A00001301809312011FC08230910559F4809127
:100A10006F0280936C0283E090E0909313018093C7
:100A2000120111C0039779F410926F0210926E02B6
:100A300010926D028FEF9FEF90931301809312013C
:100A400084E680931E01FF91EF91BF91AF919F913A
:100A50008F917F916F915F914F913F912F910F9067
:100A60000BBE0F900FBE0F901F90189535DB85DBE6
:100A70007BDB36DCC5E8D1E066246A940F2EFAE011
:100A8000EF2EF12CF02D0F2EFBEA5F2EF02D0F2E06
:100A9000F2EBAF2EF1E0BF2EF02D0F2EF3E08F2EF4
:100AA000F1E09F2EF02D0F2EF0E02F2EF1E03F2EE3
:100AB000F02D0F2EF0EACF2EF1E0DF2EF02D0F2ECD
:100AC000FDEC7F2EF02D05DC67BA11BA80911E0176
:100AD000823009F47CC130F4882369F0813009F454
:100AE000BEC0F9C2843009F488C208F4D2C1843689
:100AF00009F4C2C2F0C240911C0160911D018091B5
:100B00001A0190911B016DDB9F938F9380911C01C3
:100B10001F928F9380911D011F928F9380911B01D3
:100B20008F9380911A018F93DF92CF9225E831E065
:100B30003F932F932CD380E8EBDA85E891E006DB36
:100B400080ECE6DA8DB79EB70C960FB6F8949EBF90
:100B50000FBE8DBF80917B028D30F0F080ECD8DA33
:100B6000C101F4DA82ECD4DA80E2E8DA83ECD0DA9C
:100B700080917B0290E00C97B701D9D280E3860F79
:100B8000DDDA80917B0290E00C97B701D0D2805DD6
:100B9000D5DA8AE3D3DA26C080ECBADAC401D6DA31
:100BA00082ECB6DA80E2CADA83ECB2DA80917B02B8
:100BB000879D812D1124869586958695805DBEDA68
:100BC00080917B02879D912D1124969596959695FF
:100BD000990F292F220F220F920F891B805DAEDA09
:100BE0008AE3ACDA86EC94DA80917C02879D812DD1
:100BF0001124869586958695805DA0DA80917C0289
:100C0000879D912D1124969596959695990F292F4C
:100C1000220F220F920F891B805D90DA8AE38EDA11
:100C200089EC76DA80917D02879D812D112486954D
:100C300086958695805D82DA80917D02879D912DD3
:100C40001124969596959695990F292F220F220F8C
:100C5000920F891B805D72DAC5E8D1E03DC24091F8
:100C60006C0230916B0290916A02959D812D112446
:100C7000869586958695282F220F820F880F880FDC
:100C8000292F281B9C3018F0822D932D02C0882D0F
:100C9000992D1F924F931F923F931F922F939F93D3
:100CA0008F93BF92AF92DF93CF9371D280E830DA07
:100CB000CE014CDA80EC2CDA8DB79EB70C960FB6CD
:100CC000F8949EBF0FBE8DBF80917B028D30F0F0F7
:100CD00080EC1EDAC1013ADA82EC1ADA80E22EDA0E
:100CE00083EC16DA80917B0290E00C97B7011FD25B
:100CF00080E3860F23DA80917B0290E00C97B701A6
:100D000016D2805D1BDA8AE319DA26C080EC00DA9D
:100D1000C4011CDA82ECFCD980E210DA83ECF8D949
:100D200080917B02879D812D1124869586958695DD
:100D3000805D04DA80917B02879D912D1124969528
:100D400096959695990F292F220F220F920F891BA6
:100D5000805DF4D98AE3F2D986ECDAD980917C02FD
:100D6000879D812D1124869586958695805DE6D98F
:100D700080917C02879D912D11249695969596954C
:100D8000990F292F220F220F920F891B805DD6D930
:100D90008AE3D4D989ECBCD980917D02879D812DCD
:100DA0001124869586958695805DC8D980917D02AF
:100DB000879D912D1124969596959695990F292F9B
:100DC000220F220F920F891B805DB8D985C180E860
:100DD0009FD9C6E8D1E010E0812F806899D9899128
:100DE000ADD91F5F1931C1F780EC92D980917002A3
:100DF00090917102B7019BD180E3860F9FD98091BA
:100E0000700290917102B70192D1805D97D98AE307
:100E100095D983EC7DD98091720290917302B701CC
:100E200086D180E3860F8AD98091720290917302F5
:100E3000B7017DD1805D82D98AE380D986EC68D9FB
:100E40008091740290917502B70171D180E3860F91
:100E500075D98091740290917502B70168D1805D57
:100E60006DD98EE26BD989EC53D98091760290913D
:100E70007702B7015CD180E3860F60D9809176025A
:100E800090917702B70153D1805D58D9C6E8D1E07F
:100E900023C1409118016091190180911601909130
:100EA00017019FD99F938F93809118011F928F9361
:100EB000809119011F928F93809117018F938091D8
:100EC00016018F93DF92CF9225E831E03F932F9365
:100ED0005ED180E81DD985E891E038D980EC18D939
:100EE0008DB79EB70C960FB6F8949EBF0FBE8DBF00
:100EF000809178028D30F0F080EC0AD9C10126D9BA
:100F000082EC06D980E21AD983EC02D9809178026A
:100F100090E00C97B7010BD180E3860F0FD9809139
:100F2000780290E00C97B70102D1805D07D98AE37F
:100F300005D926C080ECECD8C40108D982ECE8D8E9
:100F400080E2FCD883ECE4D880917802879D812DE3
:100F50001124869586958695805DF0D880917802DB
:100F6000879D912D1124969596959695990F292FE9
:100F7000220F220F920F891B805DE0D88AE3DED812
:100F800086ECC6D880917902879D812D11248695A3
:100F900086958695805DD2D880917902879D912D26
:100FA0001124969596959695990F292F220F220F29
:100FB000920F891B805DC2D88AE3C0D889ECA8D87B
:100FC00080917A02879D812D11248695869586953C
:100FD000805DB4D880917A02879D912D11249695D9
:100FE00096959695990F292F220F220F920F891B04
:100FF000805DA4D8C5E8D1E06FC040916F02309108
:101000006E0290916D02959D812D11248695869595
:101010008695282F220F820F880F880F981B8091AA
:101020006A028C3018F0822D232D02C0882D292DC4
:101030001F924F931F923F931F929F932F938F93D3
:10104000BF92AF9225E831E03F932F93A0D080E884
:101050005FD885E891E07AD880EC5AD88CE691E0A8
:1010600075D88DB79EB70C960FB6F8949EBF0FBE7D
:101070008DBFC5E8D1E030C080E84AD889EC91E066
:1010800065D880917F02811106C080EC41D887EE3F
:1010900091E05CD821C0813031F480EC39D881E016
:1010A00092E054D819C0823031F480EC31D88BE111
:1010B00092E04CD811C0833031F480EC29D885E31C
:1010C00092E044D809C0843039F480EC21D88FE410
:1010D00092E03CD801C048D890917B0280916A028E
:1010E0009813F1CC90917C0280916B029813EBCC19
:1010F00090917D0280916C029813E5CC85E090E0A0
:1011000068BA2FEF3FE74DE0215030404040E1F713
:1011100000C0000018BA2FEF3FE74DE021503040EB
:101120004040E1F700C00000019751F7CCCC97FB9D
:10113000072E16F4009406D077FD08D014D007FCD3
:1011400005D03EF4909581959F4F089570956195D7
:101150007F4F0895EE0FFF1F0024001C0BBE079069
:10116000F691E02D0994AA1BBB1B51E107C0AA1FF1
:10117000BB1FA617B70710F0A61BB70B881F991F38
:101180005A95A9F780959095BC01CD0108950F93CC
:101190001F93CF93DF93CDB7DEB72E970FB6F8949A
:1011A000DEBF0FBECDBF0D891E8986E08C831A83FA
:1011B00009838FEF9FE79E838D83AE01475E5F4F6C
:1011C0006F89788DCE01019610D0EF81F885E00F00
:1011D000F11F10822E960FB6F894DEBF0FBECDBF62
:1011E000DF91CF911F910F9108952F923F924F92CF
:1011F0005F926F927F928F929F92AF92BF92CF92A7
:10120000DF92EF92FF920F931F93CF93DF93CDB7AF
:10121000DEB72B970FB6F894DEBF0FBECDBF6C01C3
:101220007B018A01FC0117821682838181FFBFC185
:10123000CE0101963C01F6019381F70193FD859162
:1012400093FF81917F01882309F4ADC1853239F480
:1012500093FD859193FF81917F01853221F4B60141
:1012600090E0D6D1E8CF912C212C312CFFE1F31561
:10127000D8F08B3279F038F4803279F08332A1F4EF
:10128000232D20611DC08D3261F0803369F4232D40
:10129000216016C0832D8260382EE32DE4603E2E3F
:1012A0002AC0F32DF8601DC037FC2DC020ED280F9B
:1012B0002A3040F08E32B9F436FC75C1232D2064FB
:1012C000322E19C036FE06C08AE0989E200D1124E9
:1012D000922E11C0EAE02E9E200D1124222EF32D15
:1012E000F0623F2E08C08C3621F4832D8068382EA2
:1012F00002C0883641F4F70193FD859193FF8191F7
:101300007F018111B3CF982F9F7D9554933028F49E
:101310000C5F1F4F9FE399830DC0833631F08337F5
:1013200071F0833509F055C020C0F80180818983B0
:101330000E5F1F4F88248394912C530112C0280103
:10134000F2E04F0E511CF801A080B18036FE03C0C0
:10135000692D70E002C06FEF7FEFC5014ED14C01E7
:101360008201F32DFF773F2E15C0280122E0420EA7
:10137000511CF801A080B18036FE03C0692D70E0D9
:1013800002C06FEF7FEFC5012DD14C01F32DF06846
:101390003F2E820133FC19C0822D90E088169906F9
:1013A000A0F4B60180E290E033D12A94F5CFF501A4
:1013B00037FC859137FE81915F01B60190E028D11D
:1013C00021102A9421E0821A91088114910479F75E
:1013D000E1C0843611F0893639F5F80137FE07C0CF
:1013E00060817181828193810C5F1F4F08C0608191
:1013F0007181072E000C880B990B0E5F1F4FF32D88
:10140000FF763F2E97FF09C0909580957095619566
:101410007F4F8F4F9F4FF0683F2E2AE030E0A301AF
:1014200033D1882E861844C0853731F4232D2F7E82
:10143000B22E2AE030E025C0932D997FB92E8F3649
:10144000C1F018F4883579F0AEC0803719F08837CC
:1014500021F0A9C0E92FE061BE2EB4FE0DC0FB2D26
:10146000F460BF2E09C034FE0AC0292F2660B22EB8
:1014700006C028E030E005C020E130E002C020E1F5
:1014800032E0F801B7FE07C06081718182819381EB
:101490000C5F1F4F06C06081718180E090E00E5F9D
:1014A0001F4FA301F1D0882E8618FB2DFF773F2E0A
:1014B00036FE0DC0232D2E7FA22E891458F434FE43
:1014C0000BC032FC09C0832D8E7EA82E05C0B82C1F
:1014D000A32C03C0B82C01C0B92CA4FE0FC0FE0180
:1014E000E80DF11D8081803321F49A2D997EA92E7B
:1014F00009C0A2FE06C0B394B39404C08A2D8678B6
:1015000009F0B394A3FC10C0A0FE06C0B21480F48E
:10151000280C922C9B180DC0B21458F4B60180E22E
:1015200090E076D0B394F8CFB21418F42B1802C020
:10153000982C212CA4FE0FC0B60180E390E068D067
:10154000A2FE16C0A1FC03C088E790E002C088E5B7
:1015500090E0B6010CC08A2D867851F0A1FE02C041
:101560008BE201C080E2A7FC8DE2B60190E050D092
:10157000891430F4B60180E390E04AD09A94F8CF11
:101580008A94F301E80DF11D8081B60190E040D00E
:101590008110F6CF222009F44ECEB60180E290E011
:1015A00037D02A94F7CFF6018681978102C08FEF5A
:1015B0009FEF2B960FB6F894DEBF0FBECDBFDF9125
:1015C000CF911F910F91FF90EF90DF90CF90BF9040
:1015D000AF909F908F907F906F905F904F903F90D3
:1015E0002F900895FC010590615070400110D8F7CC
:1015F000809590958E0F9F1F0895FC01615070405B
:1016000001900110D8F7809590958E0F9F1F089537
:101610000F931F93CF93DF93FB01238121FD03C021
:101620008FEF9FEF2CC022FF16C046815781248187
:1016300035814217530744F4A081B1819D012F5F8A
:101640003F4F318320838C93268137812F5F3F4F1B
:101650003783268314C08B01EC01FB010084F185E4
:10166000E02D0995892BE1F6D80116968D919C9174
:101670001797019617969C938E931697CE01DF913C
:10168000CF911F910F910895FA01AA27283051F1A7
:10169000203181F1E8946F936E7F6E5F7F4F8F4FA3
:1016A0009F4FAF4FB1E03ED0B4E03CD0670F781F02
:1016B000891F9A1FA11D680F791F8A1F911DA11DE7
:1016C0006A0F711D811D911DA11D20D009F4689420
:1016D0003F912AE0269F11243019305D3193DEF6C8
:1016E000CF010895462F4770405D4193B3E00FD07E
:1016F000C9F7F6CF462F4F70405D4A3318F0495D69
:1017000031FD4052419302D0A9F7EACFB4E0A6954B
:101710009795879577956795BA95C9F7009761056D
:10172000710508959B01AC010A2E069457954795C3
:1017300037952795BA95C9F7620F731F841F951FB8
:08174000A01D0895F894FFCFED
:10174800504D00414D001F1C1F1E1F1E1F1F1E1F36
:101758001E1FFFFFFFFFE4070101E407050D6453A7
:10176800756E20202020202020004D6F6E20202024
:1017780020202020005475652020202020202000D3
:10178800576564202020202020200054687572733B
:1017980020202020200046726920202020202020A0
:1017A80000536174202020202020200020202020A9
:1017B8002020202020202020202020202020202021
:1017C80020202020200053746F7077617463683A7A
:1017D8002020202020202020202020202020200021
:1017E8002530346420253032642F2530326420259A
:1017F800730054696D653A257320253032643A25A3
:101808003032643A25303264004D6F64653A2020E6
:1018180020202020202020202020202020202020C0
:101828002020202020200054696D652020202020C1
:1018380020202020202020202020202020202020A0
:1018480000416C61726D2020202020202020202063
:10185800202020202020202020200053746F707723
:101868006174636820202020202020202020202050
:1018780020202020005365742054696D65202020A5
:10188800202020202020202020202020202000533D
:10189800657420416C61726D20202020202020205A
:0A18A8002020202020202020000036
:00000001FF
